{
  "contractName": "SupplyChain",
  "abi": [
    {
      "anonymous": false,
      "inputs": [
        {
          "indexed": false,
          "internalType": "uint256",
          "name": "parent_itemId",
          "type": "uint256"
        },
        {
          "indexed": false,
          "internalType": "uint256[]",
          "name": "children_itemIds",
          "type": "uint256[]"
        }
      ],
      "name": "History",
      "type": "event"
    },
    {
      "anonymous": false,
      "inputs": [
        {
          "indexed": false,
          "internalType": "uint256",
          "name": "_node",
          "type": "uint256"
        }
      ],
      "name": "StartingNode",
      "type": "event"
    },
    {
      "anonymous": false,
      "inputs": [
        {
          "indexed": false,
          "internalType": "uint256",
          "name": "_userId",
          "type": "uint256"
        }
      ],
      "name": "UserAdded",
      "type": "event"
    },
    {
      "anonymous": false,
      "inputs": [
        {
          "indexed": false,
          "internalType": "uint256",
          "name": "_orderid",
          "type": "uint256"
        }
      ],
      "name": "orderReceived",
      "type": "event"
    },
    {
      "anonymous": false,
      "inputs": [
        {
          "indexed": false,
          "internalType": "uint256",
          "name": "_orderid",
          "type": "uint256"
        }
      ],
      "name": "orderRequested",
      "type": "event"
    },
    {
      "anonymous": false,
      "inputs": [
        {
          "indexed": false,
          "internalType": "uint256",
          "name": "_orderid",
          "type": "uint256"
        }
      ],
      "name": "orderShipped",
      "type": "event"
    },
    {
      "inputs": [
        {
          "internalType": "string",
          "name": "_userName",
          "type": "string"
        },
        {
          "internalType": "address",
          "name": "userAddress",
          "type": "address"
        }
      ],
      "name": "addNewUser",
      "outputs": [
        {
          "internalType": "uint256",
          "name": "",
          "type": "uint256"
        }
      ],
      "stateMutability": "nonpayable",
      "type": "function"
    },
    {
      "inputs": [
        {
          "internalType": "uint256",
          "name": "_userId",
          "type": "uint256"
        }
      ],
      "name": "getReceivedOrders",
      "outputs": [
        {
          "components": [
            {
              "internalType": "uint256",
              "name": "itemId",
              "type": "uint256"
            },
            {
              "internalType": "uint256",
              "name": "buyerId",
              "type": "uint256"
            },
            {
              "internalType": "string",
              "name": "itemName",
              "type": "string"
            },
            {
              "internalType": "uint256",
              "name": "orderId",
              "type": "uint256"
            },
            {
              "internalType": "bool",
              "name": "isShipped",
              "type": "bool"
            }
          ],
          "internalType": "struct User.ReceivedOrder[]",
          "name": "",
          "type": "tuple[]"
        }
      ],
      "stateMutability": "view",
      "type": "function",
      "constant": true
    },
    {
      "inputs": [
        {
          "internalType": "uint256",
          "name": "_userId",
          "type": "uint256"
        }
      ],
      "name": "getRequestedOrders",
      "outputs": [
        {
          "components": [
            {
              "internalType": "uint256",
              "name": "itemId",
              "type": "uint256"
            },
            {
              "internalType": "uint256",
              "name": "sellerId",
              "type": "uint256"
            },
            {
              "internalType": "string",
              "name": "itemName",
              "type": "string"
            },
            {
              "internalType": "uint256",
              "name": "orderId",
              "type": "uint256"
            }
          ],
          "internalType": "struct User.RequestedOrder[]",
          "name": "",
          "type": "tuple[]"
        }
      ],
      "stateMutability": "view",
      "type": "function",
      "constant": true
    },
    {
      "inputs": [
        {
          "internalType": "uint256",
          "name": "_userId",
          "type": "uint256"
        }
      ],
      "name": "getStock",
      "outputs": [
        {
          "components": [
            {
              "internalType": "uint256",
              "name": "itemId",
              "type": "uint256"
            },
            {
              "internalType": "string",
              "name": "itemName",
              "type": "string"
            },
            {
              "internalType": "uint256",
              "name": "cost",
              "type": "uint256"
            },
            {
              "internalType": "bool",
              "name": "isRetail",
              "type": "bool"
            }
          ],
          "internalType": "struct User.Stock[]",
          "name": "",
          "type": "tuple[]"
        }
      ],
      "stateMutability": "view",
      "type": "function",
      "constant": true
    },
    {
      "inputs": [],
      "name": "getUsers",
      "outputs": [
        {
          "components": [
            {
              "internalType": "uint256",
              "name": "userId",
              "type": "uint256"
            },
            {
              "internalType": "string",
              "name": "userName",
              "type": "string"
            }
          ],
          "internalType": "struct User.UserCredentials[]",
          "name": "",
          "type": "tuple[]"
        }
      ],
      "stateMutability": "view",
      "type": "function",
      "constant": true
    },
    {
      "inputs": [
        {
          "internalType": "uint256",
          "name": "_userId",
          "type": "uint256"
        }
      ],
      "name": "getuserMetadata",
      "outputs": [
        {
          "components": [
            {
              "internalType": "uint256",
              "name": "itemId",
              "type": "uint256"
            },
            {
              "internalType": "string",
              "name": "itemName",
              "type": "string"
            },
            {
              "internalType": "uint256",
              "name": "cost",
              "type": "uint256"
            },
            {
              "internalType": "bool",
              "name": "isRetail",
              "type": "bool"
            }
          ],
          "internalType": "struct User.Stock[]",
          "name": "",
          "type": "tuple[]"
        },
        {
          "components": [
            {
              "internalType": "uint256",
              "name": "itemId",
              "type": "uint256"
            },
            {
              "internalType": "uint256",
              "name": "buyerId",
              "type": "uint256"
            },
            {
              "internalType": "string",
              "name": "itemName",
              "type": "string"
            },
            {
              "internalType": "uint256",
              "name": "orderId",
              "type": "uint256"
            },
            {
              "internalType": "bool",
              "name": "isShipped",
              "type": "bool"
            }
          ],
          "internalType": "struct User.ReceivedOrder[]",
          "name": "",
          "type": "tuple[]"
        },
        {
          "components": [
            {
              "internalType": "uint256",
              "name": "itemId",
              "type": "uint256"
            },
            {
              "internalType": "uint256",
              "name": "sellerId",
              "type": "uint256"
            },
            {
              "internalType": "string",
              "name": "itemName",
              "type": "string"
            },
            {
              "internalType": "uint256",
              "name": "orderId",
              "type": "uint256"
            }
          ],
          "internalType": "struct User.RequestedOrder[]",
          "name": "",
          "type": "tuple[]"
        }
      ],
      "stateMutability": "view",
      "type": "function",
      "constant": true
    },
    {
      "inputs": [
        {
          "internalType": "uint256",
          "name": "",
          "type": "uint256"
        }
      ],
      "name": "nodes",
      "outputs": [
        {
          "internalType": "address",
          "name": "owner",
          "type": "address"
        },
        {
          "internalType": "uint256",
          "name": "ownerId",
          "type": "uint256"
        },
        {
          "internalType": "uint256",
          "name": "itemid",
          "type": "uint256"
        },
        {
          "internalType": "bool",
          "name": "isRetail",
          "type": "bool"
        },
        {
          "internalType": "uint256",
          "name": "cost",
          "type": "uint256"
        }
      ],
      "stateMutability": "view",
      "type": "function",
      "constant": true
    },
    {
      "inputs": [
        {
          "internalType": "uint256",
          "name": "",
          "type": "uint256"
        }
      ],
      "name": "userIdtoAddress",
      "outputs": [
        {
          "internalType": "address",
          "name": "",
          "type": "address"
        }
      ],
      "stateMutability": "view",
      "type": "function",
      "constant": true
    },
    {
      "inputs": [
        {
          "internalType": "uint256",
          "name": "_userId",
          "type": "uint256"
        },
        {
          "internalType": "uint256",
          "name": "_itemId",
          "type": "uint256"
        },
        {
          "internalType": "string",
          "name": "_itemName",
          "type": "string"
        },
        {
          "internalType": "bool",
          "name": "_isRetail",
          "type": "bool"
        },
        {
          "internalType": "uint256",
          "name": "_cost",
          "type": "uint256"
        }
      ],
      "name": "addStartingNode",
      "outputs": [
        {
          "internalType": "uint256",
          "name": "",
          "type": "uint256"
        }
      ],
      "stateMutability": "nonpayable",
      "type": "function"
    },
    {
      "inputs": [
        {
          "internalType": "uint256",
          "name": "_userId",
          "type": "uint256"
        },
        {
          "internalType": "uint256",
          "name": "_orderID",
          "type": "uint256"
        },
        {
          "internalType": "uint256",
          "name": "_itemId",
          "type": "uint256"
        },
        {
          "internalType": "string",
          "name": "_itemName",
          "type": "string"
        },
        {
          "internalType": "bool",
          "name": "_isRetail",
          "type": "bool"
        },
        {
          "internalType": "uint256",
          "name": "_cost",
          "type": "uint256"
        }
      ],
      "name": "addTransaction",
      "outputs": [],
      "stateMutability": "payable",
      "type": "function",
      "payable": true
    },
    {
      "inputs": [
        {
          "internalType": "uint256",
          "name": "_node",
          "type": "uint256"
        }
      ],
      "name": "isLastNode",
      "outputs": [
        {
          "internalType": "bool",
          "name": "",
          "type": "bool"
        }
      ],
      "stateMutability": "view",
      "type": "function",
      "constant": true
    },
    {
      "inputs": [
        {
          "internalType": "uint256",
          "name": "_buyerId",
          "type": "uint256"
        },
        {
          "internalType": "uint256",
          "name": "_itemId",
          "type": "uint256"
        },
        {
          "internalType": "string",
          "name": "_itemName",
          "type": "string"
        },
        {
          "internalType": "uint256",
          "name": "_sellerId",
          "type": "uint256"
        }
      ],
      "name": "orderRequest",
      "outputs": [
        {
          "internalType": "uint256",
          "name": "",
          "type": "uint256"
        }
      ],
      "stateMutability": "nonpayable",
      "type": "function"
    },
    {
      "inputs": [
        {
          "internalType": "uint256",
          "name": "_orderID",
          "type": "uint256"
        }
      ],
      "name": "orderShipping",
      "outputs": [],
      "stateMutability": "nonpayable",
      "type": "function"
    },
    {
      "inputs": [
        {
          "internalType": "uint256",
          "name": "_itemId",
          "type": "uint256"
        }
      ],
      "name": "getHistory",
      "outputs": [],
      "stateMutability": "nonpayable",
      "type": "function"
    }
  ],
  "bytecode": "0x608060405260016006556001600b556001600d5534801561001f57600080fd5b5061395d8061002f6000396000f3fe6080604052600436106100f9576000357c0100000000000000000000000000000000000000000000000000000000900480636d4424711161009c578063d90feec911610076578063d90feec91461033e578063f895239014610367578063fd613db1146103a6578063fe36d3d0146103c2576100f9565b80636d4424711461029b578063c8691b2a146102d8578063d57af42114610301576100f9565b80631ca220d1116100d85780631ca220d1146101a757806320d2db1c146101e45780633ab7d09a146102215780634082b9581461025e576100f9565b8062ce8e3e146100fe578063102804c2146101295780631c53c28014610166575b600080fd5b34801561010a57600080fd5b506101136103ff565b6040516101209190612a4f565b60405180910390f35b34801561013557600080fd5b50610150600480360381019061014b9190612c18565b6104fa565b60405161015d9190612c83565b60405180910390f35b34801561017257600080fd5b5061018d60048036038101906101889190612cca565b610617565b60405161019e959493929190612d21565b60405180910390f35b3480156101b357600080fd5b506101ce60048036038101906101c99190612d74565b61067a565b6040516101db9190612c83565b60405180910390f35b3480156101f057600080fd5b5061020b60048036038101906102069190612cca565b610a13565b6040516102189190612f1c565b60405180910390f35b34801561022d57600080fd5b5061024860048036038101906102439190612cca565b610b35565b6040516102559190613072565b60405180910390f35b34801561026a57600080fd5b50610285600480360381019061028091906130c0565b610c67565b6040516102929190612c83565b60405180910390f35b3480156102a757600080fd5b506102c260048036038101906102bd9190612cca565b610ec0565b6040516102cf919061328f565b60405180910390f35b3480156102e457600080fd5b506102ff60048036038101906102fa9190612cca565b610ffd565b005b34801561030d57600080fd5b5061032860048036038101906103239190612cca565b6112b5565b60405161033591906132b1565b60405180910390f35b34801561034a57600080fd5b5061036560048036038101906103609190612cca565b6112e8565b005b34801561037357600080fd5b5061038e60048036038101906103899190612cca565b61144d565b60405161039d939291906132cc565b60405180910390f35b6103c060048036038101906103bb9190613318565b6117de565b005b3480156103ce57600080fd5b506103e960048036038101906103e49190612cca565b611c7d565b6040516103f691906133c1565b60405180910390f35b60606007805480602002602001604051908101604052809291908181526020016000905b828210156104f15783829060005260206000209060020201604051806040016040529081600082015481526020016001820180546104609061340b565b80601f016020809104026020016040519081016040528092919081815260200182805461048c9061340b565b80156104d95780601f106104ae576101008083540402835291602001916104d9565b820191906000526020600020905b8154815290600101906020018083116104bc57829003601f168201915b50505050508152505081526020019060010190610423565b50505050905090565b60006007604051806040016040528060065481526020018581525090806001815401808255809150506001900390600052602060002090600202016000909190919091506000820151816000015560208201518160010190805190602001906105649291906126c0565b5050508160086000600654815260200190815260200160002060006101000a81548173ffffffffffffffffffffffffffffffffffffffff021916908373ffffffffffffffffffffffffffffffffffffffff160217905550600660008154809291906105ce9061346c565b91905055507f27412bb19840b11057dee7c7019767312555c4497d8d4c2383fa6b7791bf014b6006546040516106049190612c83565b60405180910390a1600654905092915050565b600c6020528060005260406000206000915090508060000160009054906101000a900473ffffffffffffffffffffffffffffffffffffffff16908060010154908060020154908060040160009054906101000a900460ff16908060050154905085565b60006040518060800160405280868152602001838152602001858152602001600181525060096000600b548152602001908152602001600020600082015181600001556020820151816001015560408201518160020155606082015181600301559050506000600f6000868152602001908152602001600020600084815260200190815260200160002054905060006008600088815260200190815260200160002060009054906101000a900473ffffffffffffffffffffffffffffffffffffffff1690503373ffffffffffffffffffffffffffffffffffffffff168173ffffffffffffffffffffffffffffffffffffffff16146107ad576040517f08c379a00000000000000000000000000000000000000000000000000000000081526004016107a490613512565b60405180910390fd5b600260008881526020019081526020016000206040518060800160405280888152602001868152602001878152602001600b5481525090806001815401808255809150506001900390600052602060002090600402016000909190919091506000820151816000015560208201518160010155604082015181600201908051906020019061083c9291906126c0565b506060820151816003015550506001600260008981526020019081526020016000208054905061086c9190613532565b600560008981526020019081526020016000206000600b54815260200190815260200160002081905550600160008581526020019081526020016000206040518060a00160405280888152602001898152602001878152602001600b5481526020016000151581525090806001815401808255809150506001900390600052602060002090600502016000909190919091506000820151816000015560208201518160010155604082015181600201908051906020019061092e9291906126c0565b506060820151816003015560808201518160040160006101000a81548160ff021916908315150217905550505060018060008681526020019081526020016000208054905061097d9190613532565b600460008681526020019081526020016000206000600b548152602001908152602001600020819055506109b18487611cb2565b6001600b60008282546109c49190613566565b925050819055507f049e46522fe5cc4dba742ea6352c3257c4049cb36eaf3d60a76326cf3ab977e2600b546040516109fc9190612c83565b60405180910390a1600b5492505050949350505050565b606060026000838152602001908152602001600020805480602002602001604051908101604052809291908181526020016000905b82821015610b2a57838290600052602060002090600402016040518060800160405290816000820154815260200160018201548152602001600282018054610a8f9061340b565b80601f0160208091040260200160405190810160405280929190818152602001828054610abb9061340b565b8015610b085780601f10610add57610100808354040283529160200191610b08565b820191906000526020600020905b815481529060010190602001808311610aeb57829003601f168201915b5050505050815260200160038201548152505081526020019060010190610a48565b505050509050919050565b6060600080838152602001908152602001600020805480602002602001604051908101604052809291908181526020016000905b82821015610c5c578382906000526020600020906004020160405180608001604052908160008201548152602001600182018054610ba69061340b565b80601f0160208091040260200160405190810160405280929190818152602001828054610bd29061340b565b8015610c1f5780601f10610bf457610100808354040283529160200191610c1f565b820191906000526020600020905b815481529060010190602001808311610c0257829003601f168201915b50505050508152602001600282015481526020016003820160009054906101000a900460ff16151515158152505081526020019060010190610b69565b505050509050919050565b600060606000600d5490506040518060c001604052803373ffffffffffffffffffffffffffffffffffffffff168152602001898152602001888152602001838152602001861515815260200185815250600c600083815260200190815260200160002060008201518160000160006101000a81548173ffffffffffffffffffffffffffffffffffffffff021916908373ffffffffffffffffffffffffffffffffffffffff16021790555060208201518160010155604082015181600201556060820151816003019080519060200190610d41929190612746565b5060808201518160040160006101000a81548160ff02191690831515021790555060a0820151816005015590505080600e60008981526020019081526020016000208190555080600f600089815260200190815260200160002060008a81526020019081526020016000208190555060008089815260200190815260200160002060405180608001604052808981526020018881526020018681526020018715158152509080600181540180825580915050600190039060005260206000209060040201600090919091909150600082015181600001556020820151816001019080519060200190610e349291906126c0565b506040820151816002015560608201518160030160006101000a81548160ff02191690831515021790555050506001600d6000828254610e749190613566565b925050819055507fd64a67730e00320b299a9b010dc8dd976eda05b8640b6e9ce9204da34fbe0c0c81604051610eaa9190612c83565b60405180910390a1809250505095945050505050565b606060016000838152602001908152602001600020805480602002602001604051908101604052809291908181526020016000905b82821015610ff257838290600052602060002090600502016040518060a00160405290816000820154815260200160018201548152602001600282018054610f3c9061340b565b80601f0160208091040260200160405190810160405280929190818152602001828054610f689061340b565b8015610fb55780601f10610f8a57610100808354040283529160200191610fb5565b820191906000526020600020905b815481529060010190602001808311610f9857829003601f168201915b50505050508152602001600382015481526020016004820160009054906101000a900460ff16151515158152505081526020019060010190610ef5565b505050509050919050565b60011515600c6000600e600085815260200190815260200160002054815260200190815260200160002060040160009054906101000a900460ff1615151461104457600080fd5b601060006110529190612793565b7fffffffffffffffffffffffffffffffffffffffffffffffffffffffffffffffff6011819055507fffffffffffffffffffffffffffffffffffffffffffffffffffffffffffffffff6012819055506110bc600e600083815260200190815260200160002054611f6c565b5b6000601254121580156110d35750600060115412155b80156110e3575060115460125412155b156112b2576000601060115481548110611100576110ff6135bc565b5b906000526020600020015490506000600c60008381526020019081526020016000206003018054905067ffffffffffffffff81111561114257611141612a8f565b5b6040519080825280602002602001820160405280156111705781602001602082028036833780820191505090505b50905061117b611fc9565b60005b600c60008481526020019081526020016000206003018054905081101561125b576000600c6000600c600087815260200190815260200160002060030184815481106111cd576111cc6135bc565b5b90600052602060002001548152602001908152602001600020600201549050611227600c60008681526020019081526020016000206003018381548110611217576112166135bc565b5b9060005260206000200154611f6c565b8083838151811061123b5761123a6135bc565b5b6020026020010181815250505080806112539061346c565b91505061117e565b507fde2df7bf6d89fff2c5e774009670958c7d10b01ced7bc7218558cf6295cf79aa600c600084815260200190815260200160002060020154826040516112a392919061369a565b60405180910390a150506110bd565b50565b60086020528060005260406000206000915054906101000a900473ffffffffffffffffffffffffffffffffffffffff1681565b6000600960008381526020019081526020016000206001015490503373ffffffffffffffffffffffffffffffffffffffff166008600083815260200190815260200160002060009054906101000a900473ffffffffffffffffffffffffffffffffffffffff1673ffffffffffffffffffffffffffffffffffffffff161461136e57600080fd5b6001600a600084815260200190815260200160002060006101000a81548160ff0219169083151502179055506000600460008381526020019081526020016000206000848152602001908152602001600020549050600180600084815260200190815260200160002082815481106113e9576113e86135bc565b5b906000526020600020906005020160040160006101000a81548160ff0219169083151502179055507f489f943aaef48c5a369b8157208390d06b8a5907566dc3c4baed23fe7a649206836040516114409190612c83565b60405180910390a1505050565b6060806060600080858152602001908152602001600020600160008681526020019081526020016000206002600087815260200190815260200160002082805480602002602001604051908101604052809291908181526020016000905b8282101561159e5783829060005260206000209060040201604051806080016040529081600082015481526020016001820180546114e89061340b565b80601f01602080910402602001604051908101604052809291908181526020018280546115149061340b565b80156115615780601f1061153657610100808354040283529160200191611561565b820191906000526020600020905b81548152906001019060200180831161154457829003601f168201915b50505050508152602001600282015481526020016003820160009054906101000a900460ff161515151581525050815260200190600101906114ab565b50505050925081805480602002602001604051908101604052809291908181526020016000905b828210156116c257838290600052602060002090600502016040518060a0016040529081600082015481526020016001820154815260200160028201805461160c9061340b565b80601f01602080910402602001604051908101604052809291908181526020018280546116389061340b565b80156116855780601f1061165a57610100808354040283529160200191611685565b820191906000526020600020905b81548152906001019060200180831161166857829003601f168201915b50505050508152602001600382015481526020016004820160009054906101000a900460ff161515151581525050815260200190600101906115c5565b50505050915080805480602002602001604051908101604052809291908181526020016000905b828210156117cb578382906000526020600020906004020160405180608001604052908160008201548152602001600182015481526020016002820180546117309061340b565b80601f016020809104026020016040519081016040528092919081815260200182805461175c9061340b565b80156117a95780601f1061177e576101008083540402835291602001916117a9565b820191906000526020600020905b81548152906001019060200180831161178c57829003601f168201915b50505050508152602001600382015481525050815260200190600101906116e9565b5050505090509250925092509193909250565b600060096000878152602001908152602001600020600301549050600081141561183d576040517f08c379a000000000000000000000000000000000000000000000000000000000815260040161183490613762565b60405180910390fd5b3373ffffffffffffffffffffffffffffffffffffffff166008600089815260200190815260200160002060009054906101000a900473ffffffffffffffffffffffffffffffffffffffff1673ffffffffffffffffffffffffffffffffffffffff16146118de576040517f08c379a00000000000000000000000000000000000000000000000000000000081526004016118d5906137ce565b60405180910390fd5b60011515600a600088815260200190815260200160002060009054906101000a900460ff16151514611945576040517f08c379a000000000000000000000000000000000000000000000000000000000815260040161193c9061383a565b60405180910390fd5b600c600082815260200190815260200160002060050154341461196757600080fd5b6000600f60008781526020019081526020016000206000898152602001908152602001600020541415611b86576000600167ffffffffffffffff8111156119b1576119b0612a8f565b5b6040519080825280602002602001820160405280156119df5781602001602082028036833780820191505090505b50905081816000815181106119f7576119f66135bc565b5b6020026020010181815250506040518060c00160405280600860008b815260200190815260200160002060009054906101000a900473ffffffffffffffffffffffffffffffffffffffff1673ffffffffffffffffffffffffffffffffffffffff168152602001898152602001878152602001828152602001851515815260200184815250600c6000600d54815260200190815260200160002060008201518160000160006101000a81548173ffffffffffffffffffffffffffffffffffffffff021916908373ffffffffffffffffffffffffffffffffffffffff16021790555060208201518160010155604082015181600201556060820151816003019080519060200190611b07929190612746565b5060808201518160040160006101000a81548160ff02191690831515021790555060a082015181600501559050506000600d5490506001600d6000828254611b4f9190613566565b9250508190555080600f600089815260200190815260200160002060008b8152602001908152602001600020819055505050611c09565b6000600f60008781526020019081526020016000206000898152602001908152602001600020549050600c600082815260200190815260200160002060030182908060018154018082558091505060019003906000526020600020016000909190919091505582600c600083815260200190815260200160002060050181905550505b6000600c6000838152602001908152602001600020600101549050611c318887878787612077565b611c3c888289612179565b7f5d2590a7f8bcb460fd3f8287ddfbb3932238bcaa516e747246cc7476501405eb87604051611c6b9190612c83565b60405180910390a15050505050505050565b600081600e6000600c600086815260200190815260200160002060020154815260200190815260200160002054149050919050565b60008060008481526020019081526020016000208054905090506001811415611d6d57600080848152602001908152602001600020600081548110611cfa57611cf96135bc565b5b9060005260206000209060040201600080820160009055600182016000611d2191906127b4565b60028201600090556003820160006101000a81549060ff021916905550506003600084815260200190815260200160002060008381526020019081526020016000206000905550611f68565b6000600360008581526020019081526020016000206000848152602001908152602001600020549050600080858152602001908152602001600020600183611db59190613532565b81548110611dc657611dc56135bc565b5b90600052602060002090600402016000808681526020019081526020016000208281548110611df857611df76135bc565b5b9060005260206000209060040201600082015481600001556001820181600101908054611e249061340b565b611e2f9291906127f4565b50600282015481600201556003820160009054906101000a900460ff168160030160006101000a81548160ff021916908315150217905550905050600080858152602001908152602001600020805480611e8c57611e8b61385a565b5b6001900381819060005260206000209060040201600080820160009055600182016000611eb991906127b4565b60028201600090556003820160006101000a81549060ff0219169055505090556003600085815260200190815260200160002060008481526020019081526020016000206000905560008060008681526020019081526020016000208281548110611f2757611f266135bc565b5b906000526020600020906004020160000154905081600360008781526020019081526020016000206000838152602001908152602001600020819055505050505b5050565b600160126000828254611f7f9190613893565b92505081905550601081908060018154018082558091505060019003906000526020600020016000909190919091505560016010805490501415611fc65760006011819055505b50565b6011546012541215611fda57600080fd5b601060115481548110611ff057611fef6135bc565b5b90600052602060002001600090556001601160008282546120119190613893565b9250508190555060006010805490501415612075577fffffffffffffffffffffffffffffffffffffffffffffffffffffffffffffffff6011819055507fffffffffffffffffffffffffffffffffffffffffffffffffffffffffffffffff6012819055505b565b600080868152602001908152602001600020604051806080016040528086815260200185815260200183815260200184151581525090806001815401808255809150506001900390600052602060002090600402016000909190919091506000820151816000015560208201518160010190805190602001906120fb9291906126c0565b506040820151816002015560608201518160030160006101000a81548160ff021916908315150217905550505060016000808781526020019081526020016000208054905061214a9190613532565b600360008781526020019081526020016000206000868152602001908152602001600020819055505050505050565b600060026000858152602001908152602001600020805490509050600181141561222557600260008581526020019081526020016000206000815481106121c3576121c26135bc565b5b906000526020600020906004020160008082016000905560018201600090556002820160006121f291906127b4565b60038201600090555050600560008581526020019081526020016000206000838152602001908152602001600020600090555b60006005600086815260200190815260200160002060008481526020019081526020016000205490506002600086815260200190815260200160002060018361226e9190613532565b8154811061227f5761227e6135bc565b5b90600052602060002090600402016002600087815260200190815260200160002082815481106122b2576122b16135bc565b5b9060005260206000209060040201600082015481600001556001820154816001015560028201816002019080546122e89061340b565b6122f39291906127f4565b5060038201548160030155905050600260008681526020019081526020016000208054806123245761232361385a565b5b6001900381819060005260206000209060040201600080820160009055600182016000905560028201600061235991906127b4565b6003820160009055505090556005600086815260200190815260200160002060008481526020019081526020016000206000905560006002600087815260200190815260200160002082815481106123b4576123b36135bc565b5b906000526020600020906004020160030154905081600560008881526020019081526020016000206000838152602001908152602001600020819055506001600086815260200190815260200160002080549050925060018314156124af5760016000878152602001908152602001600020600081548110612439576124386135bc565b5b9060005260206000209060050201600080820160009055600182016000905560028201600061246891906127b4565b60038201600090556004820160006101000a81549060ff02191690555050600460008781526020019081526020016000206000808152602001908152602001600020600090555b600460008681526020019081526020016000206000858152602001908152602001600020549150600160008681526020019081526020016000206001846124f69190613532565b81548110612507576125066135bc565b5b906000526020600020906005020160016000878152602001908152602001600020838154811061253a576125396135bc565b5b9060005260206000209060050201600082015481600001556001820154816001015560028201816002019080546125709061340b565b61257b9291906127f4565b50600382015481600301556004820160009054906101000a900460ff168160040160006101000a81548160ff021916908315150217905550905050600160008681526020019081526020016000208054806125d9576125d861385a565b5b6001900381819060005260206000209060050201600080820160009055600182016000905560028201600061260e91906127b4565b60038201600090556004820160006101000a81549060ff0219169055505090556004600086815260200190815260200160002060008581526020019081526020016000206000905560016000868152602001908152602001600020828154811061267b5761267a6135bc565b5b90600052602060002090600502016003015490508160046000878152602001908152602001600020600083815260200190815260200160002081905550505050505050565b8280546126cc9061340b565b90600052602060002090601f0160209004810192826126ee5760008555612735565b82601f1061270757805160ff1916838001178555612735565b82800160010185558215612735579182015b82811115612734578251825591602001919060010190612719565b5b5090506127429190612881565b5090565b828054828255906000526020600020908101928215612782579160200282015b82811115612781578251825591602001919060010190612766565b5b50905061278f9190612881565b5090565b50805460008255906000526020600020908101906127b19190612881565b50565b5080546127c09061340b565b6000825580601f106127d257506127f1565b601f0160209004906000526020600020908101906127f09190612881565b5b50565b8280546128009061340b565b90600052602060002090601f0160209004810192826128225760008555612870565b82601f106128335780548555612870565b8280016001018555821561287057600052602060002091601f016020900482015b8281111561286f578254825591600101919060010190612854565b5b50905061287d9190612881565b5090565b5b8082111561289a576000816000905550600101612882565b5090565b600081519050919050565b600082825260208201905092915050565b6000819050602082019050919050565b6000819050919050565b6128dd816128ca565b82525050565b600081519050919050565b600082825260208201905092915050565b60005b8381101561291d578082015181840152602081019050612902565b8381111561292c576000848401525b50505050565b6000601f19601f8301169050919050565b600061294e826128e3565b61295881856128ee565b93506129688185602086016128ff565b61297181612932565b840191505092915050565b600060408301600083015161299460008601826128d4565b50602083015184820360208601526129ac8282612943565b9150508091505092915050565b60006129c5838361297c565b905092915050565b6000602082019050919050565b60006129e58261289e565b6129ef81856128a9565b935083602082028501612a01856128ba565b8060005b85811015612a3d5784840389528151612a1e85826129b9565b9450612a29836129cd565b925060208a01995050600181019050612a05565b50829750879550505050505092915050565b60006020820190508181036000830152612a6981846129da565b905092915050565b6000604051905090565b600080fd5b600080fd5b600080fd5b600080fd5b7f4e487b7100000000000000000000000000000000000000000000000000000000600052604160045260246000fd5b612ac782612932565b810181811067ffffffffffffffff82111715612ae657612ae5612a8f565b5b80604052505050565b6000612af9612a71565b9050612b058282612abe565b919050565b600067ffffffffffffffff821115612b2557612b24612a8f565b5b612b2e82612932565b9050602081019050919050565b82818337600083830152505050565b6000612b5d612b5884612b0a565b612aef565b905082815260208101848484011115612b7957612b78612a8a565b5b612b84848285612b3b565b509392505050565b600082601f830112612ba157612ba0612a85565b5b8135612bb1848260208601612b4a565b91505092915050565b600073ffffffffffffffffffffffffffffffffffffffff82169050919050565b6000612be582612bba565b9050919050565b612bf581612bda565b8114612c0057600080fd5b50565b600081359050612c1281612bec565b92915050565b60008060408385031215612c2f57612c2e612a7b565b5b600083013567ffffffffffffffff811115612c4d57612c4c612a80565b5b612c5985828601612b8c565b9250506020612c6a85828601612c03565b9150509250929050565b612c7d816128ca565b82525050565b6000602082019050612c986000830184612c74565b92915050565b612ca7816128ca565b8114612cb257600080fd5b50565b600081359050612cc481612c9e565b92915050565b600060208284031215612ce057612cdf612a7b565b5b6000612cee84828501612cb5565b91505092915050565b612d0081612bda565b82525050565b60008115159050919050565b612d1b81612d06565b82525050565b600060a082019050612d366000830188612cf7565b612d436020830187612c74565b612d506040830186612c74565b612d5d6060830185612d12565b612d6a6080830184612c74565b9695505050505050565b60008060008060808587031215612d8e57612d8d612a7b565b5b6000612d9c87828801612cb5565b9450506020612dad87828801612cb5565b935050604085013567ffffffffffffffff811115612dce57612dcd612a80565b5b612dda87828801612b8c565b9250506060612deb87828801612cb5565b91505092959194509250565b600081519050919050565b600082825260208201905092915050565b6000819050602082019050919050565b6000608083016000830151612e3b60008601826128d4565b506020830151612e4e60208601826128d4565b5060408301518482036040860152612e668282612943565b9150506060830151612e7b60608601826128d4565b508091505092915050565b6000612e928383612e23565b905092915050565b6000602082019050919050565b6000612eb282612df7565b612ebc8185612e02565b935083602082028501612ece85612e13565b8060005b85811015612f0a5784840389528151612eeb8582612e86565b9450612ef683612e9a565b925060208a01995050600181019050612ed2565b50829750879550505050505092915050565b60006020820190508181036000830152612f368184612ea7565b905092915050565b600081519050919050565b600082825260208201905092915050565b6000819050602082019050919050565b612f7381612d06565b82525050565b6000608083016000830151612f9160008601826128d4565b5060208301518482036020860152612fa98282612943565b9150506040830151612fbe60408601826128d4565b506060830151612fd16060860182612f6a565b508091505092915050565b6000612fe88383612f79565b905092915050565b6000602082019050919050565b600061300882612f3e565b6130128185612f49565b93508360208202850161302485612f5a565b8060005b8581101561306057848403895281516130418582612fdc565b945061304c83612ff0565b925060208a01995050600181019050613028565b50829750879550505050505092915050565b6000602082019050818103600083015261308c8184612ffd565b905092915050565b61309d81612d06565b81146130a857600080fd5b50565b6000813590506130ba81613094565b92915050565b600080600080600060a086880312156130dc576130db612a7b565b5b60006130ea88828901612cb5565b95505060206130fb88828901612cb5565b945050604086013567ffffffffffffffff81111561311c5761311b612a80565b5b61312888828901612b8c565b9350506060613139888289016130ab565b925050608061314a88828901612cb5565b9150509295509295909350565b600081519050919050565b600082825260208201905092915050565b6000819050602082019050919050565b600060a08301600083015161319b60008601826128d4565b5060208301516131ae60208601826128d4565b50604083015184820360408601526131c68282612943565b91505060608301516131db60608601826128d4565b5060808301516131ee6080860182612f6a565b508091505092915050565b60006132058383613183565b905092915050565b6000602082019050919050565b600061322582613157565b61322f8185613162565b93508360208202850161324185613173565b8060005b8581101561327d578484038952815161325e85826131f9565b94506132698361320d565b925060208a01995050600181019050613245565b50829750879550505050505092915050565b600060208201905081810360008301526132a9818461321a565b905092915050565b60006020820190506132c66000830184612cf7565b92915050565b600060608201905081810360008301526132e68186612ffd565b905081810360208301526132fa818561321a565b9050818103604083015261330e8184612ea7565b9050949350505050565b60008060008060008060c0878903121561333557613334612a7b565b5b600061334389828a01612cb5565b965050602061335489828a01612cb5565b955050604061336589828a01612cb5565b945050606087013567ffffffffffffffff81111561338657613385612a80565b5b61339289828a01612b8c565b93505060806133a389828a016130ab565b92505060a06133b489828a01612cb5565b9150509295509295509295565b60006020820190506133d66000830184612d12565b92915050565b7f4e487b7100000000000000000000000000000000000000000000000000000000600052602260045260246000fd5b6000600282049050600182168061342357607f821691505b60208210811415613437576134366133dc565b5b50919050565b7f4e487b7100000000000000000000000000000000000000000000000000000000600052601160045260246000fd5b6000613477826128ca565b91507fffffffffffffffffffffffffffffffffffffffffffffffffffffffffffffffff8214156134aa576134a961343d565b5b600182019050919050565b600082825260208201905092915050565b7f506c656173652073656e642074686520636f7272656374206275796572206964600082015250565b60006134fc6020836134b5565b9150613507826134c6565b602082019050919050565b6000602082019050818103600083015261352b816134ef565b9050919050565b600061353d826128ca565b9150613548836128ca565b92508282101561355b5761355a61343d565b5b828203905092915050565b6000613571826128ca565b915061357c836128ca565b9250827fffffffffffffffffffffffffffffffffffffffffffffffffffffffffffffffff038211156135b1576135b061343d565b5b828201905092915050565b7f4e487b7100000000000000000000000000000000000000000000000000000000600052603260045260246000fd5b600081519050919050565b600082825260208201905092915050565b6000819050602082019050919050565b600061362383836128d4565b60208301905092915050565b6000602082019050919050565b6000613647826135eb565b61365181856135f6565b935061365c83613607565b8060005b8381101561368d5781516136748882613617565b975061367f8361362f565b925050600181019050613660565b5085935050505092915050565b60006040820190506136af6000830185612c74565b81810360208301526136c1818461363c565b90509392505050565b7f43616c6c206164645374617274696e674e6f646528292066756e6374696f6e2060008201527f746f2061646420746865207374617274696e67206e6f6465206f66207468652060208201527f636861696e2e0000000000000000000000000000000000000000000000000000604082015250565b600061374c6046836134b5565b9150613757826136ca565b606082019050919050565b6000602082019050818103600083015261377b8161373f565b9050919050565b7f496e7661696c6420757365720000000000000000000000000000000000000000600082015250565b60006137b8600c836134b5565b91506137c382613782565b602082019050919050565b600060208201905081810360008301526137e7816137ab565b9050919050565b7f4f7264657220796574206e6f7420736869707065640000000000000000000000600082015250565b60006138246015836134b5565b915061382f826137ee565b602082019050919050565b6000602082019050818103600083015261385381613817565b9050919050565b7f4e487b7100000000000000000000000000000000000000000000000000000000600052603160045260246000fd5b6000819050919050565b600061389e82613889565b91506138a983613889565b9250817f7fffffffffffffffffffffffffffffffffffffffffffffffffffffffffffffff038313600083121516156138e4576138e361343d565b5b817f800000000000000000000000000000000000000000000000000000000000000003831260008312161561391c5761391b61343d565b5b82820190509291505056fea2646970667358221220fa98db8b3fc6c63c983bedf813b0864ee72cfca5490eef7a01571a53d4ce5b8864736f6c634300080a0033",
  "immutableReferences": {},
  "source": "pragma solidity >=0.4.22 <0.9.0;\n\n//import  \"./Queue.sol\";\nimport \"./user.sol\";\n\ncontract SupplyChain is User {\n\n  struct Node{\n    address owner;\n    uint ownerId;\n    uint itemid;\n    uint[] precedents;\n    bool isRetail;\n    uint cost;            //cost at which this item will be sold to next person in the chain.\n\n  }\n  struct Order{\n    uint buyerId;\n    uint sellerId;\n    uint itemId;     \n    uint prevItemNodeId;     //from prevItemNodeID we can fetch the owner also, i.e, the seller.\n  }\n\n\n  mapping (uint => Order) orders;  //OrderID to orders mapping\n  mapping(uint=> bool) orderShippingSatus;  //OrderID to shipping status mapping\n  uint orderID=1;\n  mapping(uint => Node) public nodes;   //Mapping from nodeID to nodes\n  uint totalNodes=1;        //Keeps track of the index of the current node\n  mapping(uint => uint) lastNodes;    //ItemID mapped to the last node (nodeID) of that particular item\n  mapping(uint => mapping(uint => uint)) itemIdtoOwnerIdtoNodeId;  //This mappping helps in the case when we add a connection to the node for the second or subsequent times. It will help us access the nodeID which was assigned to this node when it was first created.\n  event orderReceived(uint _orderid);\n  event History(uint parent_itemId, uint[] children_itemIds);\n  event orderShipped(uint _orderid);\n  event StartingNode(uint _node);\n  event orderRequested (uint _orderid);\n\n\n  //Adds new user to the Dapp\n  function addStartingNode(uint _userId, uint _itemId, string memory _itemName, bool _isRetail, uint _cost) external returns(uint){\n    uint [] memory firstPrecedent;\n    uint node = totalNodes;\n    nodes[node] = Node(msg.sender, _userId, _itemId, firstPrecedent, _isRetail, _cost);\n    lastNodes[_itemId]=node;\n    itemIdtoOwnerIdtoNodeId[_itemId][_userId]= node;\n    userStock[_userId].push(Stock(_itemId, _itemName,_cost,_isRetail));\n    totalNodes+=1;\n    emit StartingNode(node);\n    return node;\n  }\n\n\n  function addTransaction(uint _userId, uint _orderID, uint _itemId, string memory _itemName, bool _isRetail, uint _cost) external payable {\n\n      //uint prevNodeId=1;\n      uint prevNodeId= orders[_orderID].prevItemNodeId;\n      require( prevNodeId != 0 , \"Call addStartingNode() function to add the starting node of the chain.\");\n      require (userIdtoAddress[_userId] == msg.sender, \"Invaild user\");\n      //require( isLastNode(orders[_orderID].prevItemNodeID), \"Transfer possible only from last node of an itemID in the supply chain\");\n      require( orderShippingSatus[_orderID] == true, \"Order yet not shipped\");  //This additional feature in a way ensures that there is an approval from the sender side also before the receiver adds the node in the chain\n      require (msg.value == nodes[prevNodeId].cost);   // Buyer should pay the exact amount of the previous node\n   \n      if(itemIdtoOwnerIdtoNodeId[_itemId][_userId] == 0) {   //First time taking raw material for a particular node (itemid,owner)\n        uint[] memory firstPrecedent= new uint[](1);     //way to create dynamic \"memory\" array in Solidity\n        firstPrecedent[0]=prevNodeId;   \n        nodes[totalNodes]= Node(userIdtoAddress[_userId], _userId, _itemId, firstPrecedent, _isRetail, _cost);\n        uint node= totalNodes;\n        totalNodes+=1;\n        itemIdtoOwnerIdtoNodeId[_itemId][_userId] = node;\n      }\n\n      //\n      else{\n        uint currNodeId= itemIdtoOwnerIdtoNodeId[_itemId][_userId];\n        nodes[currNodeId].precedents.push(prevNodeId);\n        nodes[currNodeId].cost=_cost;\n      }\n\n      uint sellerId= nodes[prevNodeId].ownerId;\n      updateStockforBuyer(_userId,_itemId, _itemName, _isRetail, _cost);\n      deleteOrders(_userId, sellerId, _orderID);\n\n      emit orderReceived(_orderID);\n\n  }\n\n\n  function isLastNode(uint _node) public view returns (bool) {\n\n     return lastNodes[nodes[_node].itemid] == _node;\n  }\n\n  function orderRequest(uint _buyerId, uint _itemId, string memory _itemName, uint _sellerId) external returns(uint) {\n\n    orders[orderID]= Order(_buyerId, _sellerId, _itemId, 1);\n   uint prevNodeId = itemIdtoOwnerIdtoNodeId[_itemId][_sellerId];\n   address buyer= userIdtoAddress[_buyerId];\n   require(buyer == msg.sender, \"Please send the correct buyer id\");\n    //orders[orderID]= Order(_buyerId, _sellerId, _itemId, prevNodeId);\n   \n    userRequestedOrder[_buyerId].push(RequestedOrder(_itemId, _sellerId, _itemName, orderID));\n    userIdtoOrderIdtoReqOrderInd[_buyerId][orderID]= userRequestedOrder[_buyerId].length -1 ;\n\n    userReceivedOrder[_sellerId].push(ReceivedOrder(_itemId, _buyerId, _itemName, orderID,false));\n    userIdtoOrderIdtoRecOrderInd[_sellerId][orderID] = userReceivedOrder[_sellerId].length -1 ;\n\n    updateStockforSeller(_sellerId, _itemId);  \n    orderID+=1;\n\n    emit orderRequested(orderID);\n    return orderID;\n  }\n\n\n\n\n  function orderShipping(uint _orderID) external {\n    uint sellerId= orders[_orderID].sellerId;\n    require(userIdtoAddress[sellerId]== msg.sender);\n    orderShippingSatus[_orderID]= true;\n    uint arrInd= userIdtoOrderIdtoRecOrderInd[sellerId][_orderID];\n    userReceivedOrder[sellerId][arrInd].isShipped = true;\n    emit orderShipped(_orderID);\n  }\n\n  uint[] queue;\n\n  int first;\n  int last;\n      //uint size=0;\n  function enqueue(uint data) internal {\n    last += 1;\n        //  queue[last] = data;\n    queue.push(data);\n    if(queue.length==1)\n      first=0;\n  }\n\n  function dequeue() internal {\n    require(last >= first);  // non-empty queue\n    //uint data = queue[first];\n    delete queue[uint(first)];\n    first += 1;\n    if(queue.length==0)\n    {\n      first=-1;\n      last=-1;\n    }\n  }\n\n\n  function getHistory(uint _itemId) external {\n\n    require( nodes[lastNodes[ _itemId]].isRetail == true);\n\n    //currNode = nodes[lastNodes[_itemId]];\n   // mapping(uint => bool) memory visited;     //NodeID to visted or not flag mapping\n    delete queue;\n    first=-1;\n    last=-1;\n    enqueue(lastNodes[_itemId]);\n    //visited[lastNodes[_itemId]] = true;\n\n    while(last>=0 && first>=0 && last>=first) // Condition to check that the queue is not empty \n    {\n\n        uint currNodeid= queue[uint(first)];\n        uint[] memory children_itemIds= new uint[](nodes[currNodeid].precedents.length);\n        dequeue();\n\n        for(uint i=0; i<nodes[currNodeid].precedents.length; i++) {\n\n          //if(visited[nodes[currNodeid].precedents[i]] != true) {\n          uint temp_itemId= nodes[nodes[currNodeid].precedents[i]].itemid;\n          enqueue(nodes[currNodeid].precedents[i]);\n          children_itemIds[i]= temp_itemId;\n         // last=last-1;\n        \n        }\n      emit History(nodes[currNodeid].itemid, children_itemIds);\n\n    \n    }\n  }\n/*\n  function orderRequest(uint _buyerId, uint _itemId, string memory _itemName, uint _sellerId) external returns(uint) {\n\n    orders[1]= Order(_buyerId, _sellerId, _itemId, 1);*/\n   /*uint prevNodeId = itemIdtoOwnerIdtoNodeId[_itemId][_sellerId];\n   address buyer= userIdtoAddress[_buyerId];\n   require(buyer == msg.sender);\n    //orders[orderID]= Order(_buyerId, _sellerId, _itemId, prevNodeId);\n   \n  /  userRequestedOrder[_buyerId].push(RequestedOrder(_itemId, _sellerId, _itemName, orderID));\n    userIdtoOrderIdtoReqOrderInd[_buyerId][orderID]= userRequestedOrder[_buyerId].length -1 ;\n\n    userReceivedOrder[_sellerId].push(ReceivedOrder(_itemId, _buyerId, _itemName, orderID,false));\n    userIdtoOrderIdtoRecOrderInd[_sellerId][orderID] = userReceivedOrder[_sellerId].length -1 ;\n\n    updateStockforSeller(_sellerId, _itemId);  \n    orderID+=1;\n\n    emit orderRequested(orderID);\n    return orderID;\n  }*/\n\n\n}",
  "sourcePath": "/home/rdkgpian/Desktop/SupplyChain/contracts/contracts/SupplyChain.sol",
  "compiler": {
    "name": "solc",
    "version": "0.8.10+commit.fc410830.Emscripten.clang"
  },
  "schemaVersion": "3.4.3",
  "updatedAt": "2022-02-21T15:11:07.463Z",
  "networkType": "ethereum",
  "devdoc": {
    "kind": "dev",
    "methods": {},
    "version": 1
  },
  "userdoc": {
    "kind": "user",
    "methods": {},
    "version": 1
  }
}